{
  "address": "0x641Be7e4ACBd3882F00D319053e20C7bd4a3e643",
  "abi": [
    {
      "inputs": [],
      "name": "InvalidInitialization",
      "type": "error"
    },
    {
      "inputs": [],
      "name": "NotInitializing",
      "type": "error"
    },
    {
      "anonymous": false,
      "inputs": [
        {
          "indexed": true,
          "internalType": "address",
          "name": "target",
          "type": "address"
        },
        {
          "indexed": false,
          "internalType": "uint256",
          "name": "value",
          "type": "uint256"
        },
        {
          "indexed": false,
          "internalType": "bytes",
          "name": "data",
          "type": "bytes"
        }
      ],
      "name": "Executed",
      "type": "event"
    },
    {
      "anonymous": false,
      "inputs": [
        {
          "indexed": false,
          "internalType": "uint64",
          "name": "version",
          "type": "uint64"
        }
      ],
      "name": "Initialized",
      "type": "event"
    },
    {
      "inputs": [
        {
          "internalType": "address",
          "name": "target",
          "type": "address"
        },
        {
          "internalType": "uint256",
          "name": "value",
          "type": "uint256"
        },
        {
          "internalType": "bytes",
          "name": "data",
          "type": "bytes"
        }
      ],
      "name": "execute",
      "outputs": [
        {
          "internalType": "bytes",
          "name": "",
          "type": "bytes"
        }
      ],
      "stateMutability": "nonpayable",
      "type": "function"
    },
    {
      "inputs": [
        {
          "internalType": "address",
          "name": "_owner",
          "type": "address"
        }
      ],
      "name": "initialize",
      "outputs": [],
      "stateMutability": "nonpayable",
      "type": "function"
    },
    {
      "inputs": [],
      "name": "owner",
      "outputs": [
        {
          "internalType": "address",
          "name": "",
          "type": "address"
        }
      ],
      "stateMutability": "view",
      "type": "function"
    },
    {
      "stateMutability": "payable",
      "type": "receive"
    }
  ],
  "transactionHash": "0x777668146a0a877733593370438458774f8d53d3fbc3935ef059f5b54e0f61d1",
  "args": [],
  "numDeployments": 1,
  "solcInputHash": "8ff945f4e40f1e6153d60320589eb25e",
  "bytecode": "0x6080604052348015600f57600080fd5b5061063a8061001f6000396000f3fe6080604052600436106100385760003560e01c80638da5cb5b14610044578063b61d27f61461009b578063c4d66de8146100c857600080fd5b3661003f57005b600080fd5b34801561005057600080fd5b506000546100719073ffffffffffffffffffffffffffffffffffffffff1681565b60405173ffffffffffffffffffffffffffffffffffffffff90911681526020015b60405180910390f35b3480156100a757600080fd5b506100bb6100b6366004610488565b6100ea565b6040516100929190610512565b3480156100d457600080fd5b506100e86100e336600461057e565b6102a8565b005b60005460609073ffffffffffffffffffffffffffffffffffffffff163314610173576040517f08c379a000000000000000000000000000000000000000000000000000000000815260206004820152600d60248201527f4e6f7420746865206f776e65720000000000000000000000000000000000000060448201526064015b60405180910390fd5b6000808673ffffffffffffffffffffffffffffffffffffffff1686868660405161019e9291906105a0565b60006040518083038185875af1925050503d80600081146101db576040519150601f19603f3d011682016040523d82523d6000602084013e6101e0565b606091505b50915091508161024c576040517f08c379a000000000000000000000000000000000000000000000000000000000815260206004820152601060248201527f457865637574696f6e206661696c656400000000000000000000000000000000604482015260640161016a565b8673ffffffffffffffffffffffffffffffffffffffff167fcaf938de11c367272220bfd1d2baa99ca46665e7bc4d85f00adb51b90fe1fa9f878787604051610296939291906105b0565b60405180910390a29695505050505050565b7ff0c57e16840df040f15088dc2f81fe391c3923bec73e23a9662efc9c229c6a00805468010000000000000000810460ff16159067ffffffffffffffff166000811580156102f35750825b905060008267ffffffffffffffff1660011480156103105750303b155b90508115801561031e575080155b15610355576040517ff92ee8a900000000000000000000000000000000000000000000000000000000815260040160405180910390fd5b84547fffffffffffffffffffffffffffffffffffffffffffffffff000000000000000016600117855583156103b65784547fffffffffffffffffffffffffffffffffffffffffffffff00ffffffffffffffff16680100000000000000001785555b600080547fffffffffffffffffffffffff00000000000000000000000000000000000000001673ffffffffffffffffffffffffffffffffffffffff881617905583156104575784547fffffffffffffffffffffffffffffffffffffffffffffff00ffffffffffffffff168555604051600181527fc7f505b2f371ae2175ee4913f4499e1f2633a7b5936321eed1cdaeb6115181d29060200160405180910390a15b505050505050565b803573ffffffffffffffffffffffffffffffffffffffff8116811461048357600080fd5b919050565b6000806000806060858703121561049e57600080fd5b6104a78561045f565b935060208501359250604085013567ffffffffffffffff8111156104ca57600080fd5b8501601f810187136104db57600080fd5b803567ffffffffffffffff8111156104f257600080fd5b87602082840101111561050457600080fd5b949793965060200194505050565b602081526000825180602084015260005b818110156105405760208186018101516040868401015201610523565b5060006040828501015260407fffffffffffffffffffffffffffffffffffffffffffffffffffffffffffffffe0601f83011684010191505092915050565b60006020828403121561059057600080fd5b6105998261045f565b9392505050565b8183823760009101908152919050565b83815260406020820152816040820152818360608301376000818301606090810191909152601f9092017fffffffffffffffffffffffffffffffffffffffffffffffffffffffffffffffe01601019291505056fea2646970667358221220efb8d162dc1821f9eaf98bbcd1250db4429a9ff9935b032272945e821947b85064736f6c634300081c0033",
  "devdoc": {
    "errors": {
      "InvalidInitialization()": [
        {
          "details": "The contract is already initialized."
        }
      ],
      "NotInitializing()": [
        {
          "details": "The contract is not initializing."
        }
      ]
    },
    "events": {
      "Initialized(uint64)": {
        "details": "Triggered when the contract has been initialized or reinitialized."
      }
    },
    "kind": "dev",
    "methods": {},
    "version": 1
  },
  "userdoc": {
    "kind": "user",
    "methods": {},
    "version": 1
  },
  "storageLayout": {
    "storage": [
      {
        "astId": 3869,
        "contract": "contracts/ZLSmartAccount.sol:ZLSmartAccount",
        "label": "owner",
        "offset": 0,
        "slot": "0",
        "type": "t_address"
      }
    ],
    "types": {
      "t_address": {
        "encoding": "inplace",
        "label": "address",
        "numberOfBytes": "20"
      }
    }
  }
}