{
  "address": "0xf818746D6C7C101357d47dc6228c9f801FA0Ae5a",
  "abi": [
    {
      "inputs": [
        {
          "internalType": "contract ICrossChainLayer",
          "name": "_crossChainLayer",
          "type": "address"
        }
      ],
      "stateMutability": "nonpayable",
      "type": "constructor"
    },
    {
      "inputs": [],
      "name": "InvalidInitialization",
      "type": "error"
    },
    {
      "inputs": [],
      "name": "NotInitializing",
      "type": "error"
    },
    {
      "inputs": [
        {
          "internalType": "address",
          "name": "owner",
          "type": "address"
        }
      ],
      "name": "OwnableInvalidOwner",
      "type": "error"
    },
    {
      "inputs": [
        {
          "internalType": "address",
          "name": "account",
          "type": "address"
        }
      ],
      "name": "OwnableUnauthorizedAccount",
      "type": "error"
    },
    {
      "anonymous": false,
      "inputs": [
        {
          "indexed": false,
          "internalType": "uint64",
          "name": "version",
          "type": "uint64"
        }
      ],
      "name": "Initialized",
      "type": "event"
    },
    {
      "anonymous": false,
      "inputs": [
        {
          "indexed": false,
          "internalType": "uint64",
          "name": "queryId",
          "type": "uint64"
        },
        {
          "indexed": false,
          "internalType": "uint256",
          "name": "timestamp",
          "type": "uint256"
        },
        {
          "indexed": false,
          "internalType": "string",
          "name": "operationId",
          "type": "string"
        },
        {
          "indexed": false,
          "internalType": "string",
          "name": "tvmCaller",
          "type": "string"
        },
        {
          "indexed": false,
          "internalType": "bytes",
          "name": "extraData",
          "type": "bytes"
        },
        {
          "components": [
            {
              "internalType": "address",
              "name": "l2Address",
              "type": "address"
            },
            {
              "internalType": "uint256",
              "name": "amount",
              "type": "uint256"
            }
          ],
          "indexed": false,
          "internalType": "struct TokenAmount[]",
          "name": "receivedTokens",
          "type": "tuple[]"
        }
      ],
      "name": "InvokeWithCallback",
      "type": "event"
    },
    {
      "anonymous": false,
      "inputs": [
        {
          "indexed": true,
          "internalType": "address",
          "name": "previousOwner",
          "type": "address"
        },
        {
          "indexed": true,
          "internalType": "address",
          "name": "newOwner",
          "type": "address"
        }
      ],
      "name": "OwnershipTransferred",
      "type": "event"
    },
    {
      "anonymous": false,
      "inputs": [
        {
          "indexed": true,
          "internalType": "address",
          "name": "accountAddress",
          "type": "address"
        }
      ],
      "name": "SmartAccountCreated",
      "type": "event"
    },
    {
      "inputs": [],
      "name": "beacon",
      "outputs": [
        {
          "internalType": "contract UpgradeableBeacon",
          "name": "",
          "type": "address"
        }
      ],
      "stateMutability": "view",
      "type": "function"
    },
    {
      "inputs": [],
      "name": "crossChainLayer",
      "outputs": [
        {
          "internalType": "contract ICrossChainLayer",
          "name": "",
          "type": "address"
        }
      ],
      "stateMutability": "view",
      "type": "function"
    },
    {
      "inputs": [],
      "name": "getVersion",
      "outputs": [
        {
          "internalType": "uint256",
          "name": "",
          "type": "uint256"
        }
      ],
      "stateMutability": "pure",
      "type": "function"
    },
    {
      "inputs": [
        {
          "internalType": "address",
          "name": "_initBlueprint",
          "type": "address"
        },
        {
          "internalType": "address",
          "name": "_pool",
          "type": "address"
        }
      ],
      "name": "initialize",
      "outputs": [],
      "stateMutability": "nonpayable",
      "type": "function"
    },
    {
      "inputs": [
        {
          "internalType": "bytes",
          "name": "tacHeader",
          "type": "bytes"
        },
        {
          "internalType": "bytes",
          "name": "arguments",
          "type": "bytes"
        }
      ],
      "name": "invokeWithCallback",
      "outputs": [],
      "stateMutability": "nonpayable",
      "type": "function"
    },
    {
      "inputs": [],
      "name": "owner",
      "outputs": [
        {
          "internalType": "address",
          "name": "",
          "type": "address"
        }
      ],
      "stateMutability": "view",
      "type": "function"
    },
    {
      "inputs": [],
      "name": "pool",
      "outputs": [
        {
          "internalType": "contract IPool",
          "name": "",
          "type": "address"
        }
      ],
      "stateMutability": "view",
      "type": "function"
    },
    {
      "inputs": [],
      "name": "renounceOwnership",
      "outputs": [],
      "stateMutability": "nonpayable",
      "type": "function"
    },
    {
      "inputs": [
        {
          "internalType": "bytes32",
          "name": "",
          "type": "bytes32"
        }
      ],
      "name": "smartAccounts",
      "outputs": [
        {
          "internalType": "address",
          "name": "",
          "type": "address"
        }
      ],
      "stateMutability": "view",
      "type": "function"
    },
    {
      "inputs": [
        {
          "internalType": "bytes",
          "name": "tacHeader",
          "type": "bytes"
        },
        {
          "internalType": "bytes",
          "name": "arguments",
          "type": "bytes"
        }
      ],
      "name": "supplyZerolend",
      "outputs": [],
      "stateMutability": "nonpayable",
      "type": "function"
    },
    {
      "inputs": [
        {
          "internalType": "address",
          "name": "newOwner",
          "type": "address"
        }
      ],
      "name": "transferOwnership",
      "outputs": [],
      "stateMutability": "nonpayable",
      "type": "function"
    },
    {
      "inputs": [
        {
          "internalType": "address",
          "name": "_newBlueprint",
          "type": "address"
        }
      ],
      "name": "updateBlueprint",
      "outputs": [],
      "stateMutability": "nonpayable",
      "type": "function"
    }
  ],
  "transactionHash": "0x9817638dd1b74d804b451d6917d1f9d84b7b8d1c305e16366e1c8f50243387ff",
  "args": [
    "0xf101319630F67cEaa4612930FbDd2Ee26F6E8288"
  ],
  "numDeployments": 1,
  "solcInputHash": "8ff945f4e40f1e6153d60320589eb25e",
  "bytecode": "0x60a060405234801561001057600080fd5b506040516125c13803806125c183398101604081905261002f91610040565b6001600160a01b0316608052610070565b60006020828403121561005257600080fd5b81516001600160a01b038116811461006957600080fd5b9392505050565b60805161250c6100b56000396000818161016d015281816104bb01528181610624015281816107630152818161086101528181610bf70152610d6f015261250c6000f3fe608060405234801561001057600080fd5b50600436106100d45760003560e01c806359659e9011610081578063f2fde38b1161005b578063f2fde38b1461021c578063f3ca7e441461022f578063fa81f7d91461024257600080fd5b806359659e90146101b7578063715018a6146101d75780638da5cb5b146101df57600080fd5b80631f75563f116100b25780631f75563f14610168578063485cc9551461018f57806350e9c31b146101a457600080fd5b80630d8e6e2c146100d957806316f0115b146100ed57806317c8ae5214610132575b600080fd5b604051600181526020015b60405180910390f35b60005461010d9073ffffffffffffffffffffffffffffffffffffffff1681565b60405173ffffffffffffffffffffffffffffffffffffffff90911681526020016100e4565b61010d610140366004611207565b60026020526000908152604090205473ffffffffffffffffffffffffffffffffffffffff1681565b61010d7f000000000000000000000000000000000000000000000000000000000000000081565b6101a261019d366004611249565b610255565b005b6101a26101b23660046112c5565b6104a3565b60015461010d9073ffffffffffffffffffffffffffffffffffffffff1681565b6101a26107d1565b7f9016d09d72d40fdae2fd8ceac6b6234c7706214fd39c1cd1e609a0528c1993005473ffffffffffffffffffffffffffffffffffffffff1661010d565b6101a261022a366004611336565b6107e5565b6101a261023d3660046112c5565b610849565b6101a2610250366004611336565b610de1565b7ff0c57e16840df040f15088dc2f81fe391c3923bec73e23a9662efc9c229c6a00805468010000000000000000810460ff16159067ffffffffffffffff166000811580156102a05750825b905060008267ffffffffffffffff1660011480156102bd5750303b155b9050811580156102cb575080155b15610302576040517ff92ee8a900000000000000000000000000000000000000000000000000000000815260040160405180910390fd5b84547fffffffffffffffffffffffffffffffffffffffffffffffff000000000000000016600117855583156103635784547fffffffffffffffffffffffffffffffffffffffffffffff00ffffffffffffffff16680100000000000000001785555b600080547fffffffffffffffffffffffff00000000000000000000000000000000000000001673ffffffffffffffffffffffffffffffffffffffff8816179055604051879033906103b3906111ed565b73ffffffffffffffffffffffffffffffffffffffff928316815291166020820152604001604051809103906000f0801580156103f3573d6000803e3d6000fd5b50600180547fffffffffffffffffffffffff00000000000000000000000000000000000000001673ffffffffffffffffffffffffffffffffffffffff92909216919091179055831561049a5784547fffffffffffffffffffffffffffffffffffffffffffffff00ffffffffffffffff168555604051600181527fc7f505b2f371ae2175ee4913f4499e1f2633a7b5936321eed1cdaeb6115181d29060200160405180910390a15b50505050505050565b3373ffffffffffffffffffffffffffffffffffffffff7f0000000000000000000000000000000000000000000000000000000000000000161461056d576040517f08c379a000000000000000000000000000000000000000000000000000000000815260206004820152602f60248201527f4f6e6c79207468652043726f7373436861696e4c617965722063616e2063616c60448201527f6c20746869732066756e6374696f6e000000000000000000000000000000000060648201526084015b60405180910390fd5b60006105798585610e71565b905060006105898385018561141b565b825160208401516040808601516060870151608088015192519596507ffa1a2e3bc3d4957779ee34bb2586625d526517b35f214ef4ff8b8b5d532426d7956105d59594939088906115c5565b60405180910390a160005b81518110156106eb578181815181106105fb576105fb611635565b60200260200101516000015173ffffffffffffffffffffffffffffffffffffffff1663095ea7b37f000000000000000000000000000000000000000000000000000000000000000084848151811061065557610655611635565b6020026020010151602001516040518363ffffffff1660e01b815260040161069f92919073ffffffffffffffffffffffffffffffffffffffff929092168252602082015260400190565b6020604051808303816000875af11580156106be573d6000803e3d6000fd5b505050506040513d601f19601f820116820180604052508101906106e29190611664565b506001016105e0565b5060408051608081018252835167ffffffffffffffff168152606080850151602080840191909152835190810184526000815282840152810183905290517fe9f80cf700000000000000000000000000000000000000000000000000000000815273ffffffffffffffffffffffffffffffffffffffff7f0000000000000000000000000000000000000000000000000000000000000000169163e9f80cf7916107979190600401611686565b600060405180830381600087803b1580156107b157600080fd5b505af11580156107c5573d6000803e3d6000fd5b50505050505050505050565b6107d9610ec0565b6107e36000610f4e565b565b6107ed610ec0565b73ffffffffffffffffffffffffffffffffffffffff811661083d576040517f1e4fbdf700000000000000000000000000000000000000000000000000000000815260006004820152602401610564565b61084681610f4e565b50565b3373ffffffffffffffffffffffffffffffffffffffff7f0000000000000000000000000000000000000000000000000000000000000000161461090e576040517f08c379a000000000000000000000000000000000000000000000000000000000815260206004820152602f60248201527f4f6e6c79207468652043726f7373436861696e4c617965722063616e2063616c60448201527f6c20746869732066756e6374696f6e00000000000000000000000000000000006064820152608401610564565b600061091a8585610e71565b9050600061092a83850185611736565b9050600061093b8360600151610fe4565b825160005460208501516040517f095ea7b300000000000000000000000000000000000000000000000000000000815273ffffffffffffffffffffffffffffffffffffffff92831660048201526024810191909152929350169063095ea7b3906044016020604051808303816000875af11580156109bd573d6000803e3d6000fd5b505050506040513d601f19601f820116820180604052508101906109e19190611664565b506000548251602084015160408086015190517f617ba03700000000000000000000000000000000000000000000000000000000815273ffffffffffffffffffffffffffffffffffffffff93841660048201526024810192909252848316604483015261ffff16606482015291169063617ba03790608401600060405180830381600087803b158015610a7357600080fd5b505af1158015610a87573d6000803e3d6000fd5b506000925060019150610a979050565b604051908082528060200260200182016040528015610adc57816020015b6040805180820190915260008082526020820152815260200190600190039081610ab55790505b50604080518082018252855173ffffffffffffffffffffffffffffffffffffffff9081168252865192517f70a0823100000000000000000000000000000000000000000000000000000000815230600482015293945090926020840192909116906370a0823190602401602060405180830381865afa158015610b63573d6000803e3d6000fd5b505050506040513d601f19601f82011682018060405250810190610b8791906117a9565b81525081600081518110610b9d57610b9d611635565b602090810291909101015282516040517f70a0823100000000000000000000000000000000000000000000000000000000815230600482015273ffffffffffffffffffffffffffffffffffffffff9091169063095ea7b3907f00000000000000000000000000000000000000000000000000000000000000009083906370a0823190602401602060405180830381865afa158015610c3f573d6000803e3d6000fd5b505050506040513d601f19601f82011682018060405250810190610c6391906117a9565b6040517fffffffff0000000000000000000000000000000000000000000000000000000060e085901b16815273ffffffffffffffffffffffffffffffffffffffff909216600483015260248201526044016020604051808303816000875af1158015610cd3573d6000803e3d6000fd5b505050506040513d601f19601f82011682018060405250810190610cf79190611664565b5060408051608081018252855167ffffffffffffffff168152606080870151602080840191909152835190810184526000815282840152810183905290517fe9f80cf700000000000000000000000000000000000000000000000000000000815273ffffffffffffffffffffffffffffffffffffffff7f0000000000000000000000000000000000000000000000000000000000000000169063e9f80cf790610da4908490600401611686565b600060405180830381600087803b158015610dbe57600080fd5b505af1158015610dd2573d6000803e3d6000fd5b50505050505050505050505050565b610de9610ec0565b6001546040517f3659cfe600000000000000000000000000000000000000000000000000000000815273ffffffffffffffffffffffffffffffffffffffff838116600483015290911690633659cfe690602401600060405180830381600087803b158015610e5657600080fd5b505af1158015610e6a573d6000803e3d6000fd5b5050505050565b610ead6040518060a00160405280600067ffffffffffffffff168152602001600081526020016060815260200160608152602001606081525090565b610eb98284018461186f565b9392505050565b33610eff7f9016d09d72d40fdae2fd8ceac6b6234c7706214fd39c1cd1e609a0528c1993005473ffffffffffffffffffffffffffffffffffffffff1690565b73ffffffffffffffffffffffffffffffffffffffff16146107e3576040517f118cdaa7000000000000000000000000000000000000000000000000000000008152336004820152602401610564565b7f9016d09d72d40fdae2fd8ceac6b6234c7706214fd39c1cd1e609a0528c19930080547fffffffffffffffffffffffff0000000000000000000000000000000000000000811673ffffffffffffffffffffffffffffffffffffffff848116918217845560405192169182907f8be0079c531659141344cd1fd0a4f28419497f9722a3daafe3b4186f6b6457e090600090a3505050565b60008082604051602001610ff89190611953565b604080517fffffffffffffffffffffffffffffffffffffffffffffffffffffffffffffffe081840301815291815281516020928301206000818152600290935291205490915073ffffffffffffffffffffffffffffffffffffffff16156110845760009081526002602052604090205473ffffffffffffffffffffffffffffffffffffffff1692915050565b600061108e6110e2565b60009283526002602052604090922080547fffffffffffffffffffffffff00000000000000000000000000000000000000001673ffffffffffffffffffffffffffffffffffffffff84161790555092915050565b60006110ec610ec0565b600154604080513060248083019190915282518083039091018152604490910182526020810180517bffffffffffffffffffffffffffffffffffffffffffffffffffffffff167fc4d66de800000000000000000000000000000000000000000000000000000000179052905160009273ffffffffffffffffffffffffffffffffffffffff16919061117c906111fa565b61118792919061196f565b604051809103906000f0801580156111a3573d6000803e3d6000fd5b5060405190915073ffffffffffffffffffffffffffffffffffffffff8216907ffda5cff6bbbe84f90d8cd6a2c2eb4564895574194060454ce52b61b98d848b4690600090a2905090565b610545806119a783390190565b6105eb80611eec83390190565b60006020828403121561121957600080fd5b5035919050565b803573ffffffffffffffffffffffffffffffffffffffff8116811461124457600080fd5b919050565b6000806040838503121561125c57600080fd5b61126583611220565b915061127360208401611220565b90509250929050565b60008083601f84011261128e57600080fd5b50813567ffffffffffffffff8111156112a657600080fd5b6020830191508360208285010111156112be57600080fd5b9250929050565b600080600080604085870312156112db57600080fd5b843567ffffffffffffffff8111156112f257600080fd5b6112fe8782880161127c565b909550935050602085013567ffffffffffffffff81111561131e57600080fd5b61132a8782880161127c565b95989497509550505050565b60006020828403121561134857600080fd5b610eb982611220565b7f4e487b7100000000000000000000000000000000000000000000000000000000600052604160045260246000fd5b6040805190810167ffffffffffffffff811182821017156113a3576113a3611351565b60405290565b60405160a0810167ffffffffffffffff811182821017156113a3576113a3611351565b604051601f82017fffffffffffffffffffffffffffffffffffffffffffffffffffffffffffffffe016810167ffffffffffffffff8111828210171561141357611413611351565b604052919050565b60006020828403121561142d57600080fd5b813567ffffffffffffffff81111561144457600080fd5b8201601f8101841361145557600080fd5b803567ffffffffffffffff81111561146f5761146f611351565b61147e60208260051b016113cc565b8082825260208201915060208360061b8501019250868311156114a057600080fd5b6020840193505b828410156114ef57604084880312156114bf57600080fd5b6114c7611380565b6114d085611220565b81526020858101358183015290835260409094019391909101906114a7565b9695505050505050565b60005b838110156115145781810151838201526020016114fc565b50506000910152565b600081518084526115358160208601602086016114f9565b601f017fffffffffffffffffffffffffffffffffffffffffffffffffffffffffffffffe0169290920160200192915050565b600081518084526020840193506020830160005b828110156115bb578151805173ffffffffffffffffffffffffffffffffffffffff168752602090810151818801526040909601959091019060010161157b565b5093949350505050565b67ffffffffffffffff8716815285602082015260c0604082015260006115ee60c083018761151d565b8281036060840152611600818761151d565b90508281036080840152611614818661151d565b905082810360a08401526116288185611567565b9998505050505050505050565b7f4e487b7100000000000000000000000000000000000000000000000000000000600052603260045260246000fd5b60006020828403121561167657600080fd5b81518015158114610eb957600080fd5b6020815267ffffffffffffffff825116602082015260006020830151608060408401526116b660a084018261151d565b905060408401517fffffffffffffffffffffffffffffffffffffffffffffffffffffffffffffffe08483030160608501526116f1828261151d565b91505060608401517fffffffffffffffffffffffffffffffffffffffffffffffffffffffffffffffe084830301608085015261172d8282611567565b95945050505050565b6000606082840312801561174957600080fd5b506040516000906060810167ffffffffffffffff8111828210171561177057611770611351565b60405261177c84611220565b815260208481013590820152604084013561ffff8116811461179c578283fd5b6040820152949350505050565b6000602082840312156117bb57600080fd5b5051919050565b803567ffffffffffffffff8116811461124457600080fd5b600082601f8301126117eb57600080fd5b81356020830160008067ffffffffffffffff84111561180c5761180c611351565b50601f83017fffffffffffffffffffffffffffffffffffffffffffffffffffffffffffffffe01660200161183f816113cc565b91505082815285838301111561185457600080fd5b82826020830137600092810160200192909252509392505050565b60006020828403121561188157600080fd5b813567ffffffffffffffff81111561189857600080fd5b820160a081850312156118aa57600080fd5b6118b26113a9565b6118bb826117c2565b815260208281013590820152604082013567ffffffffffffffff8111156118e157600080fd5b6118ed868285016117da565b604083015250606082013567ffffffffffffffff81111561190d57600080fd5b611919868285016117da565b606083015250608082013567ffffffffffffffff81111561193957600080fd5b611945868285016117da565b608083015250949350505050565b600082516119658184602087016114f9565b9190910192915050565b73ffffffffffffffffffffffffffffffffffffffff8316815260406020820152600061199e604083018461151d565b94935050505056fe608060405234801561001057600080fd5b5060405161054538038061054583398101604081905261002f91610165565b806001600160a01b03811661005f57604051631e4fbdf760e01b8152600060048201526024015b60405180910390fd5b61006881610079565b50610072826100c9565b5050610198565b600080546001600160a01b038381166001600160a01b0319831681178455604051919092169283917f8be0079c531659141344cd1fd0a4f28419497f9722a3daafe3b4186f6b6457e09190a35050565b806001600160a01b03163b6000036100ff5760405163211eb15960e21b81526001600160a01b0382166004820152602401610056565b600180546001600160a01b0319166001600160a01b0383169081179091556040517fbc7cd75a20ee27fd9adebab32041f755214dbc6bffa90cc0225b39da2e5c2d3b90600090a250565b80516001600160a01b038116811461016057600080fd5b919050565b6000806040838503121561017857600080fd5b61018183610149565b915061018f60208401610149565b90509250929050565b61039e806101a76000396000f3fe608060405234801561001057600080fd5b50600436106100675760003560e01c8063715018a611610050578063715018a6146100c45780638da5cb5b146100cc578063f2fde38b146100ea57600080fd5b80633659cfe61461006c5780635c60da1b14610081575b600080fd5b61007f61007a36600461032b565b6100fd565b005b60015473ffffffffffffffffffffffffffffffffffffffff165b60405173ffffffffffffffffffffffffffffffffffffffff909116815260200160405180910390f35b61007f610111565b60005473ffffffffffffffffffffffffffffffffffffffff1661009b565b61007f6100f836600461032b565b610125565b61010561018b565b61010e816101de565b50565b61011961018b565b61012360006102b6565b565b61012d61018b565b73ffffffffffffffffffffffffffffffffffffffff8116610182576040517f1e4fbdf7000000000000000000000000000000000000000000000000000000008152600060048201526024015b60405180910390fd5b61010e816102b6565b60005473ffffffffffffffffffffffffffffffffffffffff163314610123576040517f118cdaa7000000000000000000000000000000000000000000000000000000008152336004820152602401610179565b8073ffffffffffffffffffffffffffffffffffffffff163b600003610247576040517f847ac56400000000000000000000000000000000000000000000000000000000815273ffffffffffffffffffffffffffffffffffffffff82166004820152602401610179565b600180547fffffffffffffffffffffffff00000000000000000000000000000000000000001673ffffffffffffffffffffffffffffffffffffffff83169081179091556040517fbc7cd75a20ee27fd9adebab32041f755214dbc6bffa90cc0225b39da2e5c2d3b90600090a250565b6000805473ffffffffffffffffffffffffffffffffffffffff8381167fffffffffffffffffffffffff0000000000000000000000000000000000000000831681178455604051919092169283917f8be0079c531659141344cd1fd0a4f28419497f9722a3daafe3b4186f6b6457e09190a35050565b60006020828403121561033d57600080fd5b813573ffffffffffffffffffffffffffffffffffffffff8116811461036157600080fd5b939250505056fea2646970667358221220ca64ab2ef335dea7f53bd2f9d362d424ecfce051f27cd793a246095af148c26b64736f6c634300081c003360a06040526040516105eb3803806105eb83398101604081905261002291610387565b61002c828261003e565b506001600160a01b0316608052610484565b610047826100fe565b6040516001600160a01b038316907f1cf3b03a6cf19fa2baba4df148e9dcabedea7f8a5c07840e207e5c089be95d3e90600090a28051156100f2576100ed826001600160a01b0316635c60da1b6040518163ffffffff1660e01b8152600401602060405180830381865afa1580156100c3573d6000803e3d6000fd5b505050506040513d601f19601f820116820180604052508101906100e7919061044d565b82610211565b505050565b6100fa610288565b5050565b806001600160a01b03163b60000361013957604051631933b43b60e21b81526001600160a01b03821660048201526024015b60405180910390fd5b807fa3f0ad74e5423aebfd80d3ef4346578335a9a72aeaee59ff6cb3582b35133d5080546001600160a01b0319166001600160a01b0392831617905560408051635c60da1b60e01b81529051600092841691635c60da1b9160048083019260209291908290030181865afa1580156101b5573d6000803e3d6000fd5b505050506040513d601f19601f820116820180604052508101906101d9919061044d565b9050806001600160a01b03163b6000036100fa57604051634c9c8ce360e01b81526001600160a01b0382166004820152602401610130565b6060600080846001600160a01b03168460405161022e9190610468565b600060405180830381855af49150503d8060008114610269576040519150601f19603f3d011682016040523d82523d6000602084013e61026e565b606091505b50909250905061027f8583836102a9565b95945050505050565b34156102a75760405163b398979f60e01b815260040160405180910390fd5b565b6060826102be576102b982610308565b610301565b81511580156102d557506001600160a01b0384163b155b156102fe57604051639996b31560e01b81526001600160a01b0385166004820152602401610130565b50805b9392505050565b8051156103185780518082602001fd5b60405163d6bda27560e01b815260040160405180910390fd5b80516001600160a01b038116811461034857600080fd5b919050565b634e487b7160e01b600052604160045260246000fd5b60005b8381101561037e578181015183820152602001610366565b50506000910152565b6000806040838503121561039a57600080fd5b6103a383610331565b60208401519092506001600160401b038111156103bf57600080fd5b8301601f810185136103d057600080fd5b80516001600160401b038111156103e9576103e961034d565b604051601f8201601f19908116603f011681016001600160401b03811182821017156104175761041761034d565b60405281815282820160200187101561042f57600080fd5b610440826020830160208601610363565b8093505050509250929050565b60006020828403121561045f57600080fd5b61030182610331565b6000825161047a818460208701610363565b9190910192915050565b60805161014d61049e60003960006024015261014d6000f3fe608060405261000c61000e565b005b61001e610019610020565b6100b6565b565b60007f000000000000000000000000000000000000000000000000000000000000000073ffffffffffffffffffffffffffffffffffffffff16635c60da1b6040518163ffffffff1660e01b8152600401602060405180830381865afa15801561008d573d6000803e3d6000fd5b505050506040513d601f19601f820116820180604052508101906100b191906100da565b905090565b3660008037600080366000845af43d6000803e8080156100d5573d6000f35b3d6000fd5b6000602082840312156100ec57600080fd5b815173ffffffffffffffffffffffffffffffffffffffff8116811461011057600080fd5b939250505056fea26469706673582212208ff0f850792087aacfd2edcf76e35ae1c9bb8642c879d80dde2c9ab1fcefe10564736f6c634300081c0033a2646970667358221220622dc5d2432e48b345d111380864f217c576f2d82f90733e392405a752ad732264736f6c634300081c0033",
  "devdoc": {
    "errors": {
      "InvalidInitialization()": [
        {
          "details": "The contract is already initialized."
        }
      ],
      "NotInitializing()": [
        {
          "details": "The contract is not initializing."
        }
      ],
      "OwnableInvalidOwner(address)": [
        {
          "details": "The owner is not a valid owner account. (eg. `address(0)`)"
        }
      ],
      "OwnableUnauthorizedAccount(address)": [
        {
          "details": "The caller account is not authorized to perform an operation."
        }
      ]
    },
    "events": {
      "Initialized(uint64)": {
        "details": "Triggered when the contract has been initialized or reinitialized."
      }
    },
    "kind": "dev",
    "methods": {
      "getVersion()": {
        "details": "Get Tac Proxy contract version.",
        "returns": {
          "_0": "Contract version."
        }
      },
      "owner()": {
        "details": "Returns the address of the current owner."
      },
      "renounceOwnership()": {
        "details": "Leaves the contract without owner. It will not be possible to call `onlyOwner` functions. Can only be called by the current owner. NOTE: Renouncing ownership will leave the contract without an owner, thereby disabling any functionality that is only available to the owner."
      },
      "transferOwnership(address)": {
        "details": "Transfers ownership of the contract to a new account (`newOwner`). Can only be called by the current owner."
      }
    },
    "version": 1
  },
  "userdoc": {
    "kind": "user",
    "methods": {},
    "version": 1
  },
  "storageLayout": {
    "storage": [
      {
        "astId": 3461,
        "contract": "contracts/TonProxyApp.sol:TonProxyApp",
        "label": "pool",
        "offset": 0,
        "slot": "0",
        "type": "t_contract(IPool)2868"
      },
      {
        "astId": 3464,
        "contract": "contracts/TonProxyApp.sol:TonProxyApp",
        "label": "beacon",
        "offset": 0,
        "slot": "1",
        "type": "t_contract(UpgradeableBeacon)1149"
      },
      {
        "astId": 3468,
        "contract": "contracts/TonProxyApp.sol:TonProxyApp",
        "label": "smartAccounts",
        "offset": 0,
        "slot": "2",
        "type": "t_mapping(t_bytes32,t_address)"
      }
    ],
    "types": {
      "t_address": {
        "encoding": "inplace",
        "label": "address",
        "numberOfBytes": "20"
      },
      "t_bytes32": {
        "encoding": "inplace",
        "label": "bytes32",
        "numberOfBytes": "32"
      },
      "t_contract(IPool)2868": {
        "encoding": "inplace",
        "label": "contract IPool",
        "numberOfBytes": "20"
      },
      "t_contract(UpgradeableBeacon)1149": {
        "encoding": "inplace",
        "label": "contract UpgradeableBeacon",
        "numberOfBytes": "20"
      },
      "t_mapping(t_bytes32,t_address)": {
        "encoding": "mapping",
        "key": "t_bytes32",
        "label": "mapping(bytes32 => address)",
        "numberOfBytes": "32",
        "value": "t_address"
      }
    }
  }
}